{
  "_format": "hh-sol-artifact-1",
  "contractName": "LenderFunding",
  "sourceName": "contracts/LenderFunding.sol",
  "abi": [
    {
      "inputs": [
        {
          "internalType": "uint256",
          "name": "amount",
          "type": "uint256"
        },
        {
          "internalType": "uint256",
          "name": "interestRate",
          "type": "uint256"
        },
        {
          "internalType": "uint256",
          "name": "repaymentDeadline",
          "type": "uint256"
        }
      ],
      "name": "createLoanRequest",
      "outputs": [],
      "stateMutability": "nonpayable",
      "type": "function"
    },
    {
      "inputs": [
        {
          "internalType": "uint256",
          "name": "loanId",
          "type": "uint256"
        }
      ],
      "name": "getLoanStatus",
      "outputs": [
        {
          "internalType": "string",
          "name": "",
          "type": "string"
        }
      ],
      "stateMutability": "view",
      "type": "function"
    },
    {
      "inputs": [
        {
          "internalType": "uint256",
          "name": "loanId",
          "type": "uint256"
        }
      ],
      "name": "lendFunds",
      "outputs": [],
      "stateMutability": "payable",
      "type": "function"
    },
    {
      "inputs": [],
      "name": "loanCount",
      "outputs": [
        {
          "internalType": "uint256",
          "name": "",
          "type": "uint256"
        }
      ],
      "stateMutability": "view",
      "type": "function"
    },
    {
      "inputs": [
        {
          "internalType": "uint256",
          "name": "",
          "type": "uint256"
        }
      ],
      "name": "loans",
      "outputs": [
        {
          "internalType": "uint256",
          "name": "amount",
          "type": "uint256"
        },
        {
          "internalType": "uint256",
          "name": "interestRate",
          "type": "uint256"
        },
        {
          "internalType": "uint256",
          "name": "repaymentDeadline",
          "type": "uint256"
        },
        {
          "internalType": "address",
          "name": "borrower",
          "type": "address"
        },
        {
          "internalType": "address",
          "name": "lender",
          "type": "address"
        },
        {
          "internalType": "bool",
          "name": "isFunded",
          "type": "bool"
        },
        {
          "internalType": "bool",
          "name": "isRepaid",
          "type": "bool"
        },
        {
          "internalType": "enum LoanRequest.LoanStatus",
          "name": "status",
          "type": "uint8"
        }
      ],
      "stateMutability": "view",
      "type": "function"
    }
  ],
  "bytecode": "0x6080604052348015600f57600080fd5b50610c888061001f6000396000f3fe60806040526004361061004a5760003560e01c80631443e4e71461004f5780631c4fd41c14610078578063aa2d5721146100b5578063ce63094d146100d1578063e1ec3c68146100fc575b600080fd5b34801561005b57600080fd5b5061007660048036038101906100719190610856565b610140565b005b34801561008457600080fd5b5061009f600480360381019061009a91906108a9565b610310565b6040516100ac9190610966565b60405180910390f35b6100cf60048036038101906100ca91906108a9565b610596565b005b3480156100dd57600080fd5b506100e6610766565b6040516100f39190610997565b60405180910390f35b34801561010857600080fd5b50610123600480360381019061011e91906108a9565b61076c565b604051610137989796959493929190610a85565b60405180910390f35b6001600081548092919061015390610b32565b91905055506040518061010001604052808481526020018381526020018281526020013373ffffffffffffffffffffffffffffffffffffffff168152602001600073ffffffffffffffffffffffffffffffffffffffff168152602001600015158152602001600015158152602001600060038111156101d5576101d4610a0e565b5b815250600080600154815260200190815260200160002060008201518160000155602082015181600101556040820151816002015560608201518160030160006101000a81548173ffffffffffffffffffffffffffffffffffffffff021916908373ffffffffffffffffffffffffffffffffffffffff16021790555060808201518160040160006101000a81548173ffffffffffffffffffffffffffffffffffffffff021916908373ffffffffffffffffffffffffffffffffffffffff16021790555060a08201518160040160146101000a81548160ff02191690831515021790555060c08201518160040160156101000a81548160ff02191690831515021790555060e08201518160040160166101000a81548160ff0219169083600381111561030357610302610a0e565b5b0217905550905050505050565b60606000806000848152602001908152602001600020604051806101000160405290816000820154815260200160018201548152602001600282015481526020016003820160009054906101000a900473ffffffffffffffffffffffffffffffffffffffff1673ffffffffffffffffffffffffffffffffffffffff1673ffffffffffffffffffffffffffffffffffffffff1681526020016004820160009054906101000a900473ffffffffffffffffffffffffffffffffffffffff1673ffffffffffffffffffffffffffffffffffffffff1673ffffffffffffffffffffffffffffffffffffffff1681526020016004820160149054906101000a900460ff161515151581526020016004820160159054906101000a900460ff161515151581526020016004820160169054906101000a900460ff16600381111561045757610456610a0e565b5b600381111561046957610468610a0e565b5b8152505090508060c00151156104b7576040518060400160405280600681526020017f5265706169640000000000000000000000000000000000000000000000000000815250915050610591565b4281604001511080156104cc57508060c00151155b1561050f576040518060400160405280600981526020017f44656661756c7465640000000000000000000000000000000000000000000000815250915050610591565b8060a0015115610557576040518060400160405280600881526020017f417070726f766564000000000000000000000000000000000000000000000000815250915050610591565b6040518060400160405280600781526020017f50656e64696e67000000000000000000000000000000000000000000000000008152509150505b919050565b60008060008381526020019081526020016000209050600060038111156105c0576105bf610a0e565b5b8160040160169054906101000a900460ff1660038111156105e4576105e3610a0e565b5b14610624576040517f08c379a000000000000000000000000000000000000000000000000000000000815260040161061b90610bc6565b60405180910390fd5b8060000154341461066a576040517f08c379a000000000000000000000000000000000000000000000000000000000815260040161066190610c32565b60405180910390fd5b8060030160009054906101000a900473ffffffffffffffffffffffffffffffffffffffff1673ffffffffffffffffffffffffffffffffffffffff166108fc349081150290604051600060405180830381858888f193505050501580156106d4573d6000803e3d6000fd5b5060018160040160146101000a81548160ff021916908315150217905550338160040160006101000a81548173ffffffffffffffffffffffffffffffffffffffff021916908373ffffffffffffffffffffffffffffffffffffffff16021790555060018160040160166101000a81548160ff0219169083600381111561075d5761075c610a0e565b5b02179055505050565b60015481565b60006020528060005260406000206000915090508060000154908060010154908060020154908060030160009054906101000a900473ffffffffffffffffffffffffffffffffffffffff16908060040160009054906101000a900473ffffffffffffffffffffffffffffffffffffffff16908060040160149054906101000a900460ff16908060040160159054906101000a900460ff16908060040160169054906101000a900460ff16905088565b600080fd5b6000819050919050565b61083381610820565b811461083e57600080fd5b50565b6000813590506108508161082a565b92915050565b60008060006060848603121561086f5761086e61081b565b5b600061087d86828701610841565b935050602061088e86828701610841565b925050604061089f86828701610841565b9150509250925092565b6000602082840312156108bf576108be61081b565b5b60006108cd84828501610841565b91505092915050565b600081519050919050565b600082825260208201905092915050565b60005b838110156109105780820151818401526020810190506108f5565b60008484015250505050565b6000601f19601f8301169050919050565b6000610938826108d6565b61094281856108e1565b93506109528185602086016108f2565b61095b8161091c565b840191505092915050565b60006020820190508181036000830152610980818461092d565b905092915050565b61099181610820565b82525050565b60006020820190506109ac6000830184610988565b92915050565b600073ffffffffffffffffffffffffffffffffffffffff82169050919050565b60006109dd826109b2565b9050919050565b6109ed816109d2565b82525050565b60008115159050919050565b610a08816109f3565b82525050565b7f4e487b7100000000000000000000000000000000000000000000000000000000600052602160045260246000fd5b60048110610a4e57610a4d610a0e565b5b50565b6000819050610a5f82610a3d565b919050565b6000610a6f82610a51565b9050919050565b610a7f81610a64565b82525050565b600061010082019050610a9b600083018b610988565b610aa8602083018a610988565b610ab56040830189610988565b610ac260608301886109e4565b610acf60808301876109e4565b610adc60a08301866109ff565b610ae960c08301856109ff565b610af660e0830184610a76565b9998505050505050505050565b7f4e487b7100000000000000000000000000000000000000000000000000000000600052601160045260246000fd5b6000610b3d82610820565b91507fffffffffffffffffffffffffffffffffffffffffffffffffffffffffffffffff8203610b6f57610b6e610b03565b5b600182019050919050565b7f4c6f616e2072657175657374206973206e6f74206f70656e0000000000000000600082015250565b6000610bb06018836108e1565b9150610bbb82610b7a565b602082019050919050565b60006020820190508181036000830152610bdf81610ba3565b9050919050565b7f496e636f72726563742066756e64696e6720616d6f756e740000000000000000600082015250565b6000610c1c6018836108e1565b9150610c2782610be6565b602082019050919050565b60006020820190508181036000830152610c4b81610c0f565b905091905056fea26469706673582212201d5e9a84b16800df5927eeaf5f08154f1a44de403e6ec1c41e4b1205c8140d9764736f6c634300081c0033",
  "linkReferences": {},
  "deployedLinkReferences": {}
}