{
  "_format": "hh-sol-artifact-1",
  "contractName": "LoanRequest",
  "sourceName": "contracts/LoanRequest.sol",
  "abi": [
    {
      "inputs": [
        {
          "internalType": "uint256",
          "name": "amount",
          "type": "uint256"
        },
        {
          "internalType": "uint256",
          "name": "interestRate",
          "type": "uint256"
        },
        {
          "internalType": "uint256",
          "name": "repaymentDeadline",
          "type": "uint256"
        }
      ],
      "name": "createLoanRequest",
      "outputs": [],
      "stateMutability": "nonpayable",
      "type": "function"
    },
    {
      "inputs": [
        {
          "internalType": "uint256",
          "name": "loanId",
          "type": "uint256"
        }
      ],
      "name": "getLoanStatus",
      "outputs": [
        {
          "internalType": "string",
          "name": "",
          "type": "string"
        }
      ],
      "stateMutability": "view",
      "type": "function"
    },
    {
      "inputs": [],
      "name": "loanCount",
      "outputs": [
        {
          "internalType": "uint256",
          "name": "",
          "type": "uint256"
        }
      ],
      "stateMutability": "view",
      "type": "function"
    },
    {
      "inputs": [
        {
          "internalType": "uint256",
          "name": "",
          "type": "uint256"
        }
      ],
      "name": "loans",
      "outputs": [
        {
          "internalType": "uint256",
          "name": "amount",
          "type": "uint256"
        },
        {
          "internalType": "uint256",
          "name": "interestRate",
          "type": "uint256"
        },
        {
          "internalType": "uint256",
          "name": "repaymentDeadline",
          "type": "uint256"
        },
        {
          "internalType": "address",
          "name": "borrower",
          "type": "address"
        },
        {
          "internalType": "address",
          "name": "lender",
          "type": "address"
        },
        {
          "internalType": "bool",
          "name": "isFunded",
          "type": "bool"
        },
        {
          "internalType": "bool",
          "name": "isRepaid",
          "type": "bool"
        },
        {
          "internalType": "enum LoanRequest.LoanStatus",
          "name": "status",
          "type": "uint8"
        }
      ],
      "stateMutability": "view",
      "type": "function"
    }
  ],
  "bytecode": "0x6080604052348015600f57600080fd5b506109928061001f6000396000f3fe608060405234801561001057600080fd5b506004361061004c5760003560e01c80631443e4e7146100515780631c4fd41c1461006d578063ce63094d1461009d578063e1ec3c68146100bb575b600080fd5b61006b60048036038101906100669190610638565b6100f2565b005b6100876004803603810190610082919061068b565b6102c2565b6040516100949190610748565b60405180910390f35b6100a5610548565b6040516100b29190610779565b60405180910390f35b6100d560048036038101906100d0919061068b565b61054e565b6040516100e9989796959493929190610867565b60405180910390f35b6001600081548092919061010590610914565b91905055506040518061010001604052808481526020018381526020018281526020013373ffffffffffffffffffffffffffffffffffffffff168152602001600073ffffffffffffffffffffffffffffffffffffffff16815260200160001515815260200160001515815260200160006003811115610187576101866107f0565b5b815250600080600154815260200190815260200160002060008201518160000155602082015181600101556040820151816002015560608201518160030160006101000a81548173ffffffffffffffffffffffffffffffffffffffff021916908373ffffffffffffffffffffffffffffffffffffffff16021790555060808201518160040160006101000a81548173ffffffffffffffffffffffffffffffffffffffff021916908373ffffffffffffffffffffffffffffffffffffffff16021790555060a08201518160040160146101000a81548160ff02191690831515021790555060c08201518160040160156101000a81548160ff02191690831515021790555060e08201518160040160166101000a81548160ff021916908360038111156102b5576102b46107f0565b5b0217905550905050505050565b60606000806000848152602001908152602001600020604051806101000160405290816000820154815260200160018201548152602001600282015481526020016003820160009054906101000a900473ffffffffffffffffffffffffffffffffffffffff1673ffffffffffffffffffffffffffffffffffffffff1673ffffffffffffffffffffffffffffffffffffffff1681526020016004820160009054906101000a900473ffffffffffffffffffffffffffffffffffffffff1673ffffffffffffffffffffffffffffffffffffffff1673ffffffffffffffffffffffffffffffffffffffff1681526020016004820160149054906101000a900460ff161515151581526020016004820160159054906101000a900460ff161515151581526020016004820160169054906101000a900460ff166003811115610409576104086107f0565b5b600381111561041b5761041a6107f0565b5b8152505090508060c0015115610469576040518060400160405280600681526020017f5265706169640000000000000000000000000000000000000000000000000000815250915050610543565b42816040015110801561047e57508060c00151155b156104c1576040518060400160405280600981526020017f44656661756c7465640000000000000000000000000000000000000000000000815250915050610543565b8060a0015115610509576040518060400160405280600881526020017f417070726f766564000000000000000000000000000000000000000000000000815250915050610543565b6040518060400160405280600781526020017f50656e64696e67000000000000000000000000000000000000000000000000008152509150505b919050565b60015481565b60006020528060005260406000206000915090508060000154908060010154908060020154908060030160009054906101000a900473ffffffffffffffffffffffffffffffffffffffff16908060040160009054906101000a900473ffffffffffffffffffffffffffffffffffffffff16908060040160149054906101000a900460ff16908060040160159054906101000a900460ff16908060040160169054906101000a900460ff16905088565b600080fd5b6000819050919050565b61061581610602565b811461062057600080fd5b50565b6000813590506106328161060c565b92915050565b600080600060608486031215610651576106506105fd565b5b600061065f86828701610623565b935050602061067086828701610623565b925050604061068186828701610623565b9150509250925092565b6000602082840312156106a1576106a06105fd565b5b60006106af84828501610623565b91505092915050565b600081519050919050565b600082825260208201905092915050565b60005b838110156106f25780820151818401526020810190506106d7565b60008484015250505050565b6000601f19601f8301169050919050565b600061071a826106b8565b61072481856106c3565b93506107348185602086016106d4565b61073d816106fe565b840191505092915050565b60006020820190508181036000830152610762818461070f565b905092915050565b61077381610602565b82525050565b600060208201905061078e600083018461076a565b92915050565b600073ffffffffffffffffffffffffffffffffffffffff82169050919050565b60006107bf82610794565b9050919050565b6107cf816107b4565b82525050565b60008115159050919050565b6107ea816107d5565b82525050565b7f4e487b7100000000000000000000000000000000000000000000000000000000600052602160045260246000fd5b600481106108305761082f6107f0565b5b50565b60008190506108418261081f565b919050565b600061085182610833565b9050919050565b61086181610846565b82525050565b60006101008201905061087d600083018b61076a565b61088a602083018a61076a565b610897604083018961076a565b6108a460608301886107c6565b6108b160808301876107c6565b6108be60a08301866107e1565b6108cb60c08301856107e1565b6108d860e0830184610858565b9998505050505050505050565b7f4e487b7100000000000000000000000000000000000000000000000000000000600052601160045260246000fd5b600061091f82610602565b91507fffffffffffffffffffffffffffffffffffffffffffffffffffffffffffffffff8203610951576109506108e5565b5b60018201905091905056fea2646970667358221220c7757a0282c33d05412cd6b56e33b1d1be689bb1b776cdf3794d66348e0165e764736f6c634300081c0033",
  "linkReferences": {},
  "deployedLinkReferences": {}
}