{
  "_format": "hh-sol-artifact-1",
  "contractName": "LoanRepayment",
  "sourceName": "contracts/LoanRepayment.sol",
  "abi": [
    {
      "inputs": [
        {
          "internalType": "uint256",
          "name": "amount",
          "type": "uint256"
        },
        {
          "internalType": "uint256",
          "name": "interestRate",
          "type": "uint256"
        },
        {
          "internalType": "uint256",
          "name": "repaymentDeadline",
          "type": "uint256"
        }
      ],
      "name": "createLoanRequest",
      "outputs": [],
      "stateMutability": "nonpayable",
      "type": "function"
    },
    {
      "inputs": [
        {
          "internalType": "uint256",
          "name": "loanId",
          "type": "uint256"
        }
      ],
      "name": "getLoanStatus",
      "outputs": [
        {
          "internalType": "string",
          "name": "",
          "type": "string"
        }
      ],
      "stateMutability": "view",
      "type": "function"
    },
    {
      "inputs": [
        {
          "internalType": "uint256",
          "name": "loanId",
          "type": "uint256"
        }
      ],
      "name": "lendFunds",
      "outputs": [],
      "stateMutability": "payable",
      "type": "function"
    },
    {
      "inputs": [],
      "name": "loanCount",
      "outputs": [
        {
          "internalType": "uint256",
          "name": "",
          "type": "uint256"
        }
      ],
      "stateMutability": "view",
      "type": "function"
    },
    {
      "inputs": [
        {
          "internalType": "uint256",
          "name": "",
          "type": "uint256"
        }
      ],
      "name": "loans",
      "outputs": [
        {
          "internalType": "uint256",
          "name": "amount",
          "type": "uint256"
        },
        {
          "internalType": "uint256",
          "name": "interestRate",
          "type": "uint256"
        },
        {
          "internalType": "uint256",
          "name": "repaymentDeadline",
          "type": "uint256"
        },
        {
          "internalType": "address",
          "name": "borrower",
          "type": "address"
        },
        {
          "internalType": "address",
          "name": "lender",
          "type": "address"
        },
        {
          "internalType": "bool",
          "name": "isFunded",
          "type": "bool"
        },
        {
          "internalType": "bool",
          "name": "isRepaid",
          "type": "bool"
        },
        {
          "internalType": "enum LoanRequest.LoanStatus",
          "name": "status",
          "type": "uint8"
        }
      ],
      "stateMutability": "view",
      "type": "function"
    },
    {
      "inputs": [
        {
          "internalType": "uint256",
          "name": "loanId",
          "type": "uint256"
        }
      ],
      "name": "repayLoan",
      "outputs": [],
      "stateMutability": "payable",
      "type": "function"
    }
  ],
  "bytecode": "0x6080604052348015600f57600080fd5b506110eb8061001f6000396000f3fe6080604052600436106100555760003560e01c80631443e4e71461005a5780631c4fd41c14610083578063aa2d5721146100c0578063ab7b1c89146100dc578063ce63094d146100f8578063e1ec3c6814610123575b600080fd5b34801561006657600080fd5b50610081600480360381019061007c9190610a9f565b610167565b005b34801561008f57600080fd5b506100aa60048036038101906100a59190610af2565b610337565b6040516100b79190610baf565b60405180910390f35b6100da60048036038101906100d59190610af2565b6105bd565b005b6100f660048036038101906100f19190610af2565b61078d565b005b34801561010457600080fd5b5061010d6109af565b60405161011a9190610be0565b60405180910390f35b34801561012f57600080fd5b5061014a60048036038101906101459190610af2565b6109b5565b60405161015e989796959493929190610cce565b60405180910390f35b6001600081548092919061017a90610d7b565b91905055506040518061010001604052808481526020018381526020018281526020013373ffffffffffffffffffffffffffffffffffffffff168152602001600073ffffffffffffffffffffffffffffffffffffffff168152602001600015158152602001600015158152602001600060038111156101fc576101fb610c57565b5b815250600080600154815260200190815260200160002060008201518160000155602082015181600101556040820151816002015560608201518160030160006101000a81548173ffffffffffffffffffffffffffffffffffffffff021916908373ffffffffffffffffffffffffffffffffffffffff16021790555060808201518160040160006101000a81548173ffffffffffffffffffffffffffffffffffffffff021916908373ffffffffffffffffffffffffffffffffffffffff16021790555060a08201518160040160146101000a81548160ff02191690831515021790555060c08201518160040160156101000a81548160ff02191690831515021790555060e08201518160040160166101000a81548160ff0219169083600381111561032a57610329610c57565b5b0217905550905050505050565b60606000806000848152602001908152602001600020604051806101000160405290816000820154815260200160018201548152602001600282015481526020016003820160009054906101000a900473ffffffffffffffffffffffffffffffffffffffff1673ffffffffffffffffffffffffffffffffffffffff1673ffffffffffffffffffffffffffffffffffffffff1681526020016004820160009054906101000a900473ffffffffffffffffffffffffffffffffffffffff1673ffffffffffffffffffffffffffffffffffffffff1673ffffffffffffffffffffffffffffffffffffffff1681526020016004820160149054906101000a900460ff161515151581526020016004820160159054906101000a900460ff161515151581526020016004820160169054906101000a900460ff16600381111561047e5761047d610c57565b5b60038111156104905761048f610c57565b5b8152505090508060c00151156104de576040518060400160405280600681526020017f52657061696400000000000000000000000000000000000000000000000000008152509150506105b8565b4281604001511080156104f357508060c00151155b15610536576040518060400160405280600981526020017f44656661756c74656400000000000000000000000000000000000000000000008152509150506105b8565b8060a001511561057e576040518060400160405280600881526020017f417070726f7665640000000000000000000000000000000000000000000000008152509150506105b8565b6040518060400160405280600781526020017f50656e64696e67000000000000000000000000000000000000000000000000008152509150505b919050565b60008060008381526020019081526020016000209050600060038111156105e7576105e6610c57565b5b8160040160169054906101000a900460ff16600381111561060b5761060a610c57565b5b1461064b576040517f08c379a000000000000000000000000000000000000000000000000000000000815260040161064290610e0f565b60405180910390fd5b80600001543414610691576040517f08c379a000000000000000000000000000000000000000000000000000000000815260040161068890610e7b565b60405180910390fd5b8060030160009054906101000a900473ffffffffffffffffffffffffffffffffffffffff1673ffffffffffffffffffffffffffffffffffffffff166108fc349081150290604051600060405180830381858888f193505050501580156106fb573d6000803e3d6000fd5b5060018160040160146101000a81548160ff021916908315150217905550338160040160006101000a81548173ffffffffffffffffffffffffffffffffffffffff021916908373ffffffffffffffffffffffffffffffffffffffff16021790555060018160040160166101000a81548160ff0219169083600381111561078457610783610c57565b5b02179055505050565b600080600083815260200190815260200160002090508060040160149054906101000a900460ff166107f4576040517f08c379a00000000000000000000000000000000000000000000000000000000081526004016107eb90610ee7565b60405180910390fd5b8060030160009054906101000a900473ffffffffffffffffffffffffffffffffffffffff1673ffffffffffffffffffffffffffffffffffffffff163373ffffffffffffffffffffffffffffffffffffffff1614610886576040517f08c379a000000000000000000000000000000000000000000000000000000000815260040161087d90610f53565b60405180910390fd5b60648160010154826000015461089c9190610f73565b6108a69190610fe4565b81600001546108b59190611015565b34146108f6576040517f08c379a00000000000000000000000000000000000000000000000000000000081526004016108ed90611095565b60405180910390fd5b8060040160009054906101000a900473ffffffffffffffffffffffffffffffffffffffff1673ffffffffffffffffffffffffffffffffffffffff166108fc349081150290604051600060405180830381858888f19350505050158015610960573d6000803e3d6000fd5b5060018160040160156101000a81548160ff02191690831515021790555060028160040160166101000a81548160ff021916908360038111156109a6576109a5610c57565b5b02179055505050565b60015481565b60006020528060005260406000206000915090508060000154908060010154908060020154908060030160009054906101000a900473ffffffffffffffffffffffffffffffffffffffff16908060040160009054906101000a900473ffffffffffffffffffffffffffffffffffffffff16908060040160149054906101000a900460ff16908060040160159054906101000a900460ff16908060040160169054906101000a900460ff16905088565b600080fd5b6000819050919050565b610a7c81610a69565b8114610a8757600080fd5b50565b600081359050610a9981610a73565b92915050565b600080600060608486031215610ab857610ab7610a64565b5b6000610ac686828701610a8a565b9350506020610ad786828701610a8a565b9250506040610ae886828701610a8a565b9150509250925092565b600060208284031215610b0857610b07610a64565b5b6000610b1684828501610a8a565b91505092915050565b600081519050919050565b600082825260208201905092915050565b60005b83811015610b59578082015181840152602081019050610b3e565b60008484015250505050565b6000601f19601f8301169050919050565b6000610b8182610b1f565b610b8b8185610b2a565b9350610b9b818560208601610b3b565b610ba481610b65565b840191505092915050565b60006020820190508181036000830152610bc98184610b76565b905092915050565b610bda81610a69565b82525050565b6000602082019050610bf56000830184610bd1565b92915050565b600073ffffffffffffffffffffffffffffffffffffffff82169050919050565b6000610c2682610bfb565b9050919050565b610c3681610c1b565b82525050565b60008115159050919050565b610c5181610c3c565b82525050565b7f4e487b7100000000000000000000000000000000000000000000000000000000600052602160045260246000fd5b60048110610c9757610c96610c57565b5b50565b6000819050610ca882610c86565b919050565b6000610cb882610c9a565b9050919050565b610cc881610cad565b82525050565b600061010082019050610ce4600083018b610bd1565b610cf1602083018a610bd1565b610cfe6040830189610bd1565b610d0b6060830188610c2d565b610d186080830187610c2d565b610d2560a0830186610c48565b610d3260c0830185610c48565b610d3f60e0830184610cbf565b9998505050505050505050565b7f4e487b7100000000000000000000000000000000000000000000000000000000600052601160045260246000fd5b6000610d8682610a69565b91507fffffffffffffffffffffffffffffffffffffffffffffffffffffffffffffffff8203610db857610db7610d4c565b5b600182019050919050565b7f4c6f616e2072657175657374206973206e6f74206f70656e0000000000000000600082015250565b6000610df9601883610b2a565b9150610e0482610dc3565b602082019050919050565b60006020820190508181036000830152610e2881610dec565b9050919050565b7f496e636f72726563742066756e64696e6720616d6f756e740000000000000000600082015250565b6000610e65601883610b2a565b9150610e7082610e2f565b602082019050919050565b60006020820190508181036000830152610e9481610e58565b9050919050565b7f4c6f616e206973206e6f742066756e6465642079657400000000000000000000600082015250565b6000610ed1601683610b2a565b9150610edc82610e9b565b602082019050919050565b60006020820190508181036000830152610f0081610ec4565b9050919050565b7f4f6e6c7920626f72726f7765722063616e207265706179000000000000000000600082015250565b6000610f3d601783610b2a565b9150610f4882610f07565b602082019050919050565b60006020820190508181036000830152610f6c81610f30565b9050919050565b6000610f7e82610a69565b9150610f8983610a69565b9250828202610f9781610a69565b91508282048414831517610fae57610fad610d4c565b5b5092915050565b7f4e487b7100000000000000000000000000000000000000000000000000000000600052601260045260246000fd5b6000610fef82610a69565b9150610ffa83610a69565b92508261100a57611009610fb5565b5b828204905092915050565b600061102082610a69565b915061102b83610a69565b925082820190508082111561104357611042610d4c565b5b92915050565b7f496e636f72726563742072657061796d656e7420616d6f756e74000000000000600082015250565b600061107f601a83610b2a565b915061108a82611049565b602082019050919050565b600060208201905081810360008301526110ae81611072565b905091905056fea26469706673582212200c90661467c2d9d0e05cb07b0c4caa383b1ea6a618acd9bfa6921ba6a13ee06c64736f6c634300081c0033",
  "linkReferences": {},
  "deployedLinkReferences": {}
}