{
  "_format": "hh-sol-artifact-1",
  "contractName": "LoanRepayment",
  "sourceName": "contracts/LoanRepayment.sol",
  "abi": [
    {
      "anonymous": false,
      "inputs": [
        {
          "indexed": false,
          "internalType": "uint256",
          "name": "loanId",
          "type": "uint256"
        },
        {
          "indexed": false,
          "internalType": "address",
          "name": "borrower",
          "type": "address"
        },
        {
          "indexed": false,
          "internalType": "uint256",
          "name": "amount",
          "type": "uint256"
        },
        {
          "indexed": false,
          "internalType": "uint256",
          "name": "interestRate",
          "type": "uint256"
        },
        {
          "indexed": false,
          "internalType": "uint256",
          "name": "repaymentDeadline",
          "type": "uint256"
        }
      ],
      "name": "LoanCreated",
      "type": "event"
    },
    {
      "inputs": [
        {
          "internalType": "uint256",
          "name": "amount",
          "type": "uint256"
        },
        {
          "internalType": "uint256",
          "name": "interestRate",
          "type": "uint256"
        },
        {
          "internalType": "uint256",
          "name": "repaymentDeadline",
          "type": "uint256"
        }
      ],
      "name": "createLoanRequest",
      "outputs": [],
      "stateMutability": "nonpayable",
      "type": "function"
    },
    {
      "inputs": [
        {
          "internalType": "uint256",
          "name": "loanId",
          "type": "uint256"
        }
      ],
      "name": "getLoanStatus",
      "outputs": [
        {
          "internalType": "string",
          "name": "",
          "type": "string"
        }
      ],
      "stateMutability": "view",
      "type": "function"
    },
    {
      "inputs": [
        {
          "internalType": "uint256",
          "name": "loanId",
          "type": "uint256"
        }
      ],
      "name": "lendFunds",
      "outputs": [],
      "stateMutability": "payable",
      "type": "function"
    },
    {
      "inputs": [],
      "name": "loanCount",
      "outputs": [
        {
          "internalType": "uint256",
          "name": "",
          "type": "uint256"
        }
      ],
      "stateMutability": "view",
      "type": "function"
    },
    {
      "inputs": [
        {
          "internalType": "uint256",
          "name": "",
          "type": "uint256"
        }
      ],
      "name": "loans",
      "outputs": [
        {
          "internalType": "uint256",
          "name": "amount",
          "type": "uint256"
        },
        {
          "internalType": "uint256",
          "name": "interestRate",
          "type": "uint256"
        },
        {
          "internalType": "uint256",
          "name": "repaymentDeadline",
          "type": "uint256"
        },
        {
          "internalType": "address",
          "name": "borrower",
          "type": "address"
        },
        {
          "internalType": "address",
          "name": "lender",
          "type": "address"
        },
        {
          "internalType": "bool",
          "name": "isFunded",
          "type": "bool"
        },
        {
          "internalType": "bool",
          "name": "isRepaid",
          "type": "bool"
        },
        {
          "internalType": "enum LoanRequest.LoanStatus",
          "name": "status",
          "type": "uint8"
        }
      ],
      "stateMutability": "view",
      "type": "function"
    },
    {
      "inputs": [
        {
          "internalType": "uint256",
          "name": "loanId",
          "type": "uint256"
        }
      ],
      "name": "repayLoan",
      "outputs": [],
      "stateMutability": "payable",
      "type": "function"
    }
  ],
  "bytecode": "0x6080604052348015600f57600080fd5b5061123c8061001f6000396000f3fe6080604052600436106100555760003560e01c80631443e4e71461005a5780631c4fd41c14610083578063aa2d5721146100c0578063ab7b1c89146100dc578063ce63094d146100f8578063e1ec3c6814610123575b600080fd5b34801561006657600080fd5b50610081600480360381019061007c9190610b31565b610167565b005b34801561008f57600080fd5b506100aa60048036038101906100a59190610b84565b610378565b6040516100b79190610c41565b60405180910390f35b6100da60048036038101906100d59190610b84565b61064f565b005b6100f660048036038101906100f19190610b84565b61081f565b005b34801561010457600080fd5b5061010d610a41565b60405161011a9190610c72565b60405180910390f35b34801561012f57600080fd5b5061014a60048036038101906101459190610b84565b610a47565b60405161015e989796959493929190610d60565b60405180910390f35b6001600081548092919061017a90610e0d565b91905055506040518061010001604052808481526020018381526020018281526020013373ffffffffffffffffffffffffffffffffffffffff168152602001600073ffffffffffffffffffffffffffffffffffffffff168152602001600015158152602001600015158152602001600060038111156101fc576101fb610ce9565b5b815250600080600154815260200190815260200160002060008201518160000155602082015181600101556040820151816002015560608201518160030160006101000a81548173ffffffffffffffffffffffffffffffffffffffff021916908373ffffffffffffffffffffffffffffffffffffffff16021790555060808201518160040160006101000a81548173ffffffffffffffffffffffffffffffffffffffff021916908373ffffffffffffffffffffffffffffffffffffffff16021790555060a08201518160040160146101000a81548160ff02191690831515021790555060c08201518160040160156101000a81548160ff02191690831515021790555060e08201518160040160166101000a81548160ff0219169083600381111561032a57610329610ce9565b5b02179055509050507fb2cca1719ad611d325136b9c9a4357f412d33694d93c60d4c1b6e922d524cf596001543385858560405161036b959493929190610e55565b60405180910390a1505050565b606060008211801561038c57506001548211155b6103cb576040517f08c379a00000000000000000000000000000000000000000000000000000000081526004016103c290610ef4565b60405180910390fd5b6000806000848152602001908152602001600020604051806101000160405290816000820154815260200160018201548152602001600282015481526020016003820160009054906101000a900473ffffffffffffffffffffffffffffffffffffffff1673ffffffffffffffffffffffffffffffffffffffff1673ffffffffffffffffffffffffffffffffffffffff1681526020016004820160009054906101000a900473ffffffffffffffffffffffffffffffffffffffff1673ffffffffffffffffffffffffffffffffffffffff1673ffffffffffffffffffffffffffffffffffffffff1681526020016004820160149054906101000a900460ff161515151581526020016004820160159054906101000a900460ff161515151581526020016004820160169054906101000a900460ff1660038111156105105761050f610ce9565b5b600381111561052257610521610ce9565b5b8152505090508060c0015115610570576040518060400160405280600681526020017f526570616964000000000000000000000000000000000000000000000000000081525091505061064a565b42816040015110801561058557508060c00151155b156105c8576040518060400160405280600981526020017f44656661756c746564000000000000000000000000000000000000000000000081525091505061064a565b8060a0015115610610576040518060400160405280600881526020017f417070726f76656400000000000000000000000000000000000000000000000081525091505061064a565b6040518060400160405280600781526020017f50656e64696e67000000000000000000000000000000000000000000000000008152509150505b919050565b600080600083815260200190815260200160002090506000600381111561067957610678610ce9565b5b8160040160169054906101000a900460ff16600381111561069d5761069c610ce9565b5b146106dd576040517f08c379a00000000000000000000000000000000000000000000000000000000081526004016106d490610f60565b60405180910390fd5b80600001543414610723576040517f08c379a000000000000000000000000000000000000000000000000000000000815260040161071a90610fcc565b60405180910390fd5b8060030160009054906101000a900473ffffffffffffffffffffffffffffffffffffffff1673ffffffffffffffffffffffffffffffffffffffff166108fc349081150290604051600060405180830381858888f1935050505015801561078d573d6000803e3d6000fd5b5060018160040160146101000a81548160ff021916908315150217905550338160040160006101000a81548173ffffffffffffffffffffffffffffffffffffffff021916908373ffffffffffffffffffffffffffffffffffffffff16021790555060018160040160166101000a81548160ff0219169083600381111561081657610815610ce9565b5b02179055505050565b600080600083815260200190815260200160002090508060040160149054906101000a900460ff16610886576040517f08c379a000000000000000000000000000000000000000000000000000000000815260040161087d90611038565b60405180910390fd5b8060030160009054906101000a900473ffffffffffffffffffffffffffffffffffffffff1673ffffffffffffffffffffffffffffffffffffffff163373ffffffffffffffffffffffffffffffffffffffff1614610918576040517f08c379a000000000000000000000000000000000000000000000000000000000815260040161090f906110a4565b60405180910390fd5b60648160010154826000015461092e91906110c4565b6109389190611135565b81600001546109479190611166565b3414610988576040517f08c379a000000000000000000000000000000000000000000000000000000000815260040161097f906111e6565b60405180910390fd5b8060040160009054906101000a900473ffffffffffffffffffffffffffffffffffffffff1673ffffffffffffffffffffffffffffffffffffffff166108fc349081150290604051600060405180830381858888f193505050501580156109f2573d6000803e3d6000fd5b5060018160040160156101000a81548160ff02191690831515021790555060028160040160166101000a81548160ff02191690836003811115610a3857610a37610ce9565b5b02179055505050565b60015481565b60006020528060005260406000206000915090508060000154908060010154908060020154908060030160009054906101000a900473ffffffffffffffffffffffffffffffffffffffff16908060040160009054906101000a900473ffffffffffffffffffffffffffffffffffffffff16908060040160149054906101000a900460ff16908060040160159054906101000a900460ff16908060040160169054906101000a900460ff16905088565b600080fd5b6000819050919050565b610b0e81610afb565b8114610b1957600080fd5b50565b600081359050610b2b81610b05565b92915050565b600080600060608486031215610b4a57610b49610af6565b5b6000610b5886828701610b1c565b9350506020610b6986828701610b1c565b9250506040610b7a86828701610b1c565b9150509250925092565b600060208284031215610b9a57610b99610af6565b5b6000610ba884828501610b1c565b91505092915050565b600081519050919050565b600082825260208201905092915050565b60005b83811015610beb578082015181840152602081019050610bd0565b60008484015250505050565b6000601f19601f8301169050919050565b6000610c1382610bb1565b610c1d8185610bbc565b9350610c2d818560208601610bcd565b610c3681610bf7565b840191505092915050565b60006020820190508181036000830152610c5b8184610c08565b905092915050565b610c6c81610afb565b82525050565b6000602082019050610c876000830184610c63565b92915050565b600073ffffffffffffffffffffffffffffffffffffffff82169050919050565b6000610cb882610c8d565b9050919050565b610cc881610cad565b82525050565b60008115159050919050565b610ce381610cce565b82525050565b7f4e487b7100000000000000000000000000000000000000000000000000000000600052602160045260246000fd5b60048110610d2957610d28610ce9565b5b50565b6000819050610d3a82610d18565b919050565b6000610d4a82610d2c565b9050919050565b610d5a81610d3f565b82525050565b600061010082019050610d76600083018b610c63565b610d83602083018a610c63565b610d906040830189610c63565b610d9d6060830188610cbf565b610daa6080830187610cbf565b610db760a0830186610cda565b610dc460c0830185610cda565b610dd160e0830184610d51565b9998505050505050505050565b7f4e487b7100000000000000000000000000000000000000000000000000000000600052601160045260246000fd5b6000610e1882610afb565b91507fffffffffffffffffffffffffffffffffffffffffffffffffffffffffffffffff8203610e4a57610e49610dde565b5b600182019050919050565b600060a082019050610e6a6000830188610c63565b610e776020830187610cbf565b610e846040830186610c63565b610e916060830185610c63565b610e9e6080830184610c63565b9695505050505050565b7f4c6f616e20646f6573206e6f7420657869737400000000000000000000000000600082015250565b6000610ede601383610bbc565b9150610ee982610ea8565b602082019050919050565b60006020820190508181036000830152610f0d81610ed1565b9050919050565b7f4c6f616e2072657175657374206973206e6f74206f70656e0000000000000000600082015250565b6000610f4a601883610bbc565b9150610f5582610f14565b602082019050919050565b60006020820190508181036000830152610f7981610f3d565b9050919050565b7f496e636f72726563742066756e64696e6720616d6f756e740000000000000000600082015250565b6000610fb6601883610bbc565b9150610fc182610f80565b602082019050919050565b60006020820190508181036000830152610fe581610fa9565b9050919050565b7f4c6f616e206973206e6f742066756e6465642079657400000000000000000000600082015250565b6000611022601683610bbc565b915061102d82610fec565b602082019050919050565b6000602082019050818103600083015261105181611015565b9050919050565b7f4f6e6c7920626f72726f7765722063616e207265706179000000000000000000600082015250565b600061108e601783610bbc565b915061109982611058565b602082019050919050565b600060208201905081810360008301526110bd81611081565b9050919050565b60006110cf82610afb565b91506110da83610afb565b92508282026110e881610afb565b915082820484148315176110ff576110fe610dde565b5b5092915050565b7f4e487b7100000000000000000000000000000000000000000000000000000000600052601260045260246000fd5b600061114082610afb565b915061114b83610afb565b92508261115b5761115a611106565b5b828204905092915050565b600061117182610afb565b915061117c83610afb565b925082820190508082111561119457611193610dde565b5b92915050565b7f496e636f72726563742072657061796d656e7420616d6f756e74000000000000600082015250565b60006111d0601a83610bbc565b91506111db8261119a565b602082019050919050565b600060208201905081810360008301526111ff816111c3565b905091905056fea26469706673582212205125c140282d3017a53f6cebce7193d45f812aa05a6d4b35b1637216c28b839564736f6c634300081c0033",
  "linkReferences": {},
  "deployedLinkReferences": {}
}